:100000000200037590FF1206CA1206CA1205C11239
:10001000041D753B0074011205DB74801205DB9032
:1000200006D21205F974C01205DB9006E71205F935
:1000300074941205DB9006FC1205F974D41205DBEA
:100040009007111205F912060560FBB43106753AE6
:100050000002005DB432EF753A0102005D753901AE
:10006000753B00120427E53B7072E53A602CE539D8
:10007000B40227120188120551F53BE53B701512B9
:100080000541B40106753B03020094753901120461
:100090002702006612042702006612060560FBB400
:1000A000430302000F12013250F0120551F53BE5F7
:1000B0003B7023120541B40106753B030200D6E5EF
:1000C00039B4010975390212042702006675390135
:1000D000120427020066120427020066740112054A
:1000E000DB74801205DB9007501205F974C012050D
:1000F000DBE53BB401099007651205F9020111B473
:10010000020990077A1205F902011190078F120572
:10011000F974941205DB9007A41205F974D4120542
:10012000DB9007B91205F912060560FBB443F8022B
:10013000000FC3B43105783002017CB43205783148
:1001400002017CB43305783202017CB43405783383
:1001500002017CB43505783402017CB4360578356B
:1001600002017CB43705783602017CB43805783753
:1001700002017CB43905783802017C22E660041261
:1001800005AC22E539F6D3221201F84065120224AB
:100190004060120250405B12027540567834E660AF
:1001A00051E530B401057838E66047E538B401051B
:1001B0007830E6603DE532B401057836E66033E537
:1001C00036B401057832E660297830E6602478326A
:1001D000E6601F7836E6601A7838E660157831E612
:1001E00060107833E6600B7835E660067837E660B5
:1001F000012276021206CA22C37902892F12039EB7
:1002000040211203A6401C1203AE40171203B64051
:10021000121203BE400D1203C640081203CE400363
:100220001203D622C37901892F12039E40211203A3
:10023000A6401C1203AE40171203B640121203BEB2
:10024000400D1203C640081203CE40031203D6220B
:10025000C37830E670167602882E12029AA82E769F
:1002600000E52DB40204A82ED322A82EE8B438024B
:10027000C3220880DEC37830E670167601882E121D
:1002800002E6A82E7600E52DB40204A82ED322A8FB
:100290002EE8B43802C3220880DE752D007A307B48
:1002A000317C321203327A337B347C351203327A5A
:1002B000367B377C381203327A307B337C3612033C
:1002C000327A317B347C371203327A327B357C3898
:1002D0001203327A307B347C381203327A327B3428
:1002E0007C3612033222752D007A307B317C32123B
:1002F00003687A337B347C351203687A367B377C2B
:10030000381203687A307B337C361203687A317B8B
:10031000347C371203687A327B357C381203687A72
:10032000307B347C381203687A327B347C3612039B
:100330006822EAF8E6F5F0EBF8E6FDECF8E6AEF058
:10034000B4010122EDB4010122EEB40101227F00CB
:10035000EEB402010FEDB402010FECF8E6B40201B5
:100360000FEFB40102052D22EAF8E6F5F0EBF8E60E
:10037000FDECF8E6AEF0B4020122EDB4020122EE8B
:10038000B40201227F00EEB401010FEDB401010FB0
:10039000ECF8E6B401010FEFB40102052D227A302A
:1003A0007B317C3280367A337B347C35802E7A36D2
:1003B0007B377C3880267A307B337C36801E7A31DE
:1003C0007B347C3780167A327B357C38800E7A30ED
:1003D0007B347C3880067A327B347C36EAF8E6F56A
:1003E000F0EBF8E6FDECF8E6AEF0B52F0CEDB52F2E
:1003F00008E5F07004EAF8D322EDB52F0DEEB52F25
:1004000009EBF8E67004EBF8D322EEB52F0DEDB54D
:100410002F09ECF8E67004ECF8D322C32278307F81
:1004200009760008DFFB2274011205DB74801205D7
:10043000DB74371205EA743A1205EAE53612053222
:100440001205EA74201205EA74381205EA743A12A9
:1004500005EAE5371205321205EA74201205EA743E
:10046000391205EA743A1205EAE538120532120526
:10047000EA74201205EA74201205EA74541205EA9F
:10048000743A1205EA74201205EAE539B4010874D9
:10049000581205EA02049C744F1205EA74C0120552
:1004A000DB74341205EA743A1205EAE533120532B8
:1004B0001205EA74201205EA74351205EA743A123C
:1004C00005EAE5341205321205EA74201205EA74D1
:1004D000361205EA743A1205EAE5351205321205BC
:1004E000EA74941205DB74311205EA743A1205EAD3
:1004F000E5301205321205EA74201205EA74321250
:1005000005EA743A1205EAE5311205321205EA7479
:10051000201205EA74331205EA743A1205EAE5324C
:100520001205321205EA74D41205DB900726120573
:10053000F922B40003745F22B40103745822744F8B
:100540002278307F09E6600608DFFA740122740021
:1005500022E5306007B53104B5320122E53360078A
:10056000B53404B5350122E5366007B53704B53832
:100570000122E5306007B53304B5360122E531606C
:1005800007B53404B5370122E5326007B53504B547
:10059000380122E5306007B53404B5380122E53270
:1005A0006007B53404B536012274002274D41205F4
:1005B000DB90073B1205F91206CA1206CA1204277D
:1005C0002274381205DB740C1205DB74011205DB92
:1005D00074061205DB74801205DB22C2A0F5B0D2CE
:1005E000A21206C1C2A21206C122D2A0F5B0D2A2A6
:1005F0001206C1C2A21206C122E49360071205EAE4
:10060000A30205F9227590FE000030943F30954218
:100610003096453097487590FD00003094463095EF
:100620004930964C30974F7590FB000030944D3018
:1006300095503096533097567590F700003094548B
:1006400030955730965A30975D74002274371206F1
:10065000AC2274381206AC2274391206AC22742F04
:100660001206AC2274341206AC2274351206AC2287
:1006700074361206AC22742A1206AC2274311206A9
:10068000AC2274321206AC2274331206AC22742DE2
:100690001206AC2274431206AC2274301206AC224D
:1006A000743D1206AC22742B1206AC22C0E0759089
:1006B000FF000000E59054F0B4F0F31206C1D0E062
:1006C000227E147FFFDFFEDEFA227C501206C1DCA0
:1006D000FB225449432D5441432D544F452047415B
:1006E0004D452020202000313A20506C6179657200
:1006F00020767320506C617965722000323A205068
:100700006C61796572207673204149202020202079
:100710000050726573732031206F722032202020C8
:10072000202020202000433D4D656E752020202094
:10073000202020202020202020200043656C6C20D9
:1007400074616B656E2120526574727920202000DF
:100750002A2A2A2047414D45204F564552202A2A11
:100760002A20202000506C6179657220582057495A
:100770004E532120202020202000506C617965728A
:10078000204F2057494E532120202020202000496F
:1007900074732061204452415721202020202020C2
:1007A000202020005072657373204320746F2072E4
:1007B0006573746172742020002020202020202086
:0E07C00020202020202020202020202020008B
:00000001FF
